{
  "address": "0xD84379CEae14AA33C123Af12424A37803F885889",
  "abi": [
    {
      "inputs": [
        {
          "internalType": "address",
          "name": "_controller",
          "type": "address"
        }
      ],
      "stateMutability": "nonpayable",
      "type": "constructor"
    },
    {
      "anonymous": false,
      "inputs": [
        {
          "indexed": true,
          "internalType": "address",
          "name": "owner",
          "type": "address"
        },
        {
          "indexed": true,
          "internalType": "address",
          "name": "spender",
          "type": "address"
        },
        {
          "indexed": false,
          "internalType": "uint256",
          "name": "value",
          "type": "uint256"
        }
      ],
      "name": "Approval",
      "type": "event"
    },
    {
      "anonymous": false,
      "inputs": [
        {
          "indexed": true,
          "internalType": "address",
          "name": "from",
          "type": "address"
        },
        {
          "indexed": true,
          "internalType": "address",
          "name": "to",
          "type": "address"
        },
        {
          "indexed": false,
          "internalType": "uint256",
          "name": "value",
          "type": "uint256"
        }
      ],
      "name": "Transfer",
      "type": "event"
    },
    {
      "inputs": [
        {
          "internalType": "address",
          "name": "owner",
          "type": "address"
        },
        {
          "internalType": "address",
          "name": "spender",
          "type": "address"
        }
      ],
      "name": "allowance",
      "outputs": [
        {
          "internalType": "uint256",
          "name": "",
          "type": "uint256"
        }
      ],
      "stateMutability": "view",
      "type": "function"
    },
    {
      "inputs": [
        {
          "internalType": "address",
          "name": "spender",
          "type": "address"
        },
        {
          "internalType": "uint256",
          "name": "amount",
          "type": "uint256"
        }
      ],
      "name": "approve",
      "outputs": [
        {
          "internalType": "bool",
          "name": "",
          "type": "bool"
        }
      ],
      "stateMutability": "nonpayable",
      "type": "function"
    },
    {
      "inputs": [],
      "name": "balance",
      "outputs": [
        {
          "internalType": "uint256",
          "name": "",
          "type": "uint256"
        }
      ],
      "stateMutability": "view",
      "type": "function"
    },
    {
      "inputs": [
        {
          "internalType": "address",
          "name": "account",
          "type": "address"
        }
      ],
      "name": "balanceOf",
      "outputs": [
        {
          "internalType": "uint256",
          "name": "",
          "type": "uint256"
        }
      ],
      "stateMutability": "view",
      "type": "function"
    },
    {
      "inputs": [],
      "name": "controller",
      "outputs": [
        {
          "internalType": "address",
          "name": "",
          "type": "address"
        }
      ],
      "stateMutability": "view",
      "type": "function"
    },
    {
      "inputs": [],
      "name": "decimals",
      "outputs": [
        {
          "internalType": "uint8",
          "name": "",
          "type": "uint8"
        }
      ],
      "stateMutability": "view",
      "type": "function"
    },
    {
      "inputs": [
        {
          "internalType": "address",
          "name": "spender",
          "type": "address"
        },
        {
          "internalType": "uint256",
          "name": "subtractedValue",
          "type": "uint256"
        }
      ],
      "name": "decreaseAllowance",
      "outputs": [
        {
          "internalType": "bool",
          "name": "",
          "type": "bool"
        }
      ],
      "stateMutability": "nonpayable",
      "type": "function"
    },
    {
      "inputs": [
        {
          "internalType": "uint256",
          "name": "_amount",
          "type": "uint256"
        }
      ],
      "name": "deposit",
      "outputs": [],
      "stateMutability": "payable",
      "type": "function"
    },
    {
      "inputs": [],
      "name": "earn",
      "outputs": [],
      "stateMutability": "nonpayable",
      "type": "function"
    },
    {
      "inputs": [],
      "name": "getPricePerFullShare",
      "outputs": [
        {
          "internalType": "uint256",
          "name": "",
          "type": "uint256"
        }
      ],
      "stateMutability": "view",
      "type": "function"
    },
    {
      "inputs": [
        {
          "internalType": "address",
          "name": "spender",
          "type": "address"
        },
        {
          "internalType": "uint256",
          "name": "addedValue",
          "type": "uint256"
        }
      ],
      "name": "increaseAllowance",
      "outputs": [
        {
          "internalType": "bool",
          "name": "",
          "type": "bool"
        }
      ],
      "stateMutability": "nonpayable",
      "type": "function"
    },
    {
      "inputs": [],
      "name": "name",
      "outputs": [
        {
          "internalType": "string",
          "name": "",
          "type": "string"
        }
      ],
      "stateMutability": "view",
      "type": "function"
    },
    {
      "inputs": [],
      "name": "symbol",
      "outputs": [
        {
          "internalType": "string",
          "name": "",
          "type": "string"
        }
      ],
      "stateMutability": "view",
      "type": "function"
    },
    {
      "inputs": [],
      "name": "totalSupply",
      "outputs": [
        {
          "internalType": "uint256",
          "name": "",
          "type": "uint256"
        }
      ],
      "stateMutability": "view",
      "type": "function"
    },
    {
      "inputs": [
        {
          "internalType": "address",
          "name": "recipient",
          "type": "address"
        },
        {
          "internalType": "uint256",
          "name": "amount",
          "type": "uint256"
        }
      ],
      "name": "transfer",
      "outputs": [
        {
          "internalType": "bool",
          "name": "",
          "type": "bool"
        }
      ],
      "stateMutability": "nonpayable",
      "type": "function"
    },
    {
      "inputs": [
        {
          "internalType": "address",
          "name": "sender",
          "type": "address"
        },
        {
          "internalType": "address",
          "name": "recipient",
          "type": "address"
        },
        {
          "internalType": "uint256",
          "name": "amount",
          "type": "uint256"
        }
      ],
      "name": "transferFrom",
      "outputs": [
        {
          "internalType": "bool",
          "name": "",
          "type": "bool"
        }
      ],
      "stateMutability": "nonpayable",
      "type": "function"
    },
    {
      "inputs": [
        {
          "internalType": "uint256",
          "name": "_shares",
          "type": "uint256"
        }
      ],
      "name": "withdraw",
      "outputs": [],
      "stateMutability": "nonpayable",
      "type": "function"
    },
    {
      "stateMutability": "payable",
      "type": "receive"
    }
  ],
  "transactionHash": "0x27a3468e91a53d8bda845ee34c12e2cb1380beab9d22d3246e04765101fdec26",
  "args": [
    "0xBEc49fA140aCaA83533fB00A2BB19bDdd0290f25"
  ],
  "solcInputHash": "2b81705ccd7aed8eb0b8fbb83d8bd2bf",
  "bytecode": "0x60806040523480156200001157600080fd5b506040516200224d3803806200224d8339818101604052810190620000379190620001e6565b6040518060400160405280600981526020017f6b616d616f2045544800000000000000000000000000000000000000000000008152506040518060400160405280600481526020017f6b455448000000000000000000000000000000000000000000000000000000008152508160039080519060200190620000bb9291906200011f565b508060049080519060200190620000d49291906200011f565b50505080600560006101000a81548173ffffffffffffffffffffffffffffffffffffffff021916908373ffffffffffffffffffffffffffffffffffffffff16021790555050620002c5565b8280546200012d9062000246565b90600052602060002090601f0160209004810192826200015157600085556200019d565b82601f106200016c57805160ff19168380011785556200019d565b828001600101855582156200019d579182015b828111156200019c5782518255916020019190600101906200017f565b5b509050620001ac9190620001b0565b5090565b5b80821115620001cb576000816000905550600101620001b1565b5090565b600081519050620001e081620002ab565b92915050565b600060208284031215620001f957600080fd5b60006200020984828501620001cf565b91505092915050565b60006200021f8262000226565b9050919050565b600073ffffffffffffffffffffffffffffffffffffffff82169050919050565b600060028204905060018216806200025f57607f821691505b602082108114156200027657620002756200027c565b5b50919050565b7f4e487b7100000000000000000000000000000000000000000000000000000000600052602260045260246000fd5b620002b68162000212565b8114620002c257600080fd5b50565b611f7880620002d56000396000f3fe6080604052600436106101025760003560e01c806377c7b8fc11610095578063b69ef8a811610064578063b69ef8a81461037c578063b6b55f25146103a7578063d389800f146103c3578063dd62ed3e146103da578063f77c47911461041757610109565b806377c7b8fc146102ac57806395d89b41146102d7578063a457c2d714610302578063a9059cbb1461033f57610109565b80632e1a7d4d116100d15780632e1a7d4d146101de578063313ce56714610207578063395093511461023257806370a082311461026f57610109565b806306fdde031461010e578063095ea7b31461013957806318160ddd1461017657806323b872dd146101a157610109565b3661010957005b600080fd5b34801561011a57600080fd5b50610123610442565b60405161013091906117a4565b60405180910390f35b34801561014557600080fd5b50610160600480360381019061015b91906114cb565b6104d4565b60405161016d9190611789565b60405180910390f35b34801561018257600080fd5b5061018b6104f2565b6040516101989190611926565b60405180910390f35b3480156101ad57600080fd5b506101c860048036038101906101c3919061147c565b6104fc565b6040516101d59190611789565b60405180910390f35b3480156101ea57600080fd5b5061020560048036038101906102009190611507565b6105f4565b005b34801561021357600080fd5b5061021c610649565b6040516102299190611941565b60405180910390f35b34801561023e57600080fd5b50610259600480360381019061025491906114cb565b610652565b6040516102669190611789565b60405180910390f35b34801561027b57600080fd5b5061029660048036038101906102919190611417565b6106fe565b6040516102a39190611926565b60405180910390f35b3480156102b857600080fd5b506102c1610746565b6040516102ce9190611926565b60405180910390f35b3480156102e357600080fd5b506102ec610788565b6040516102f991906117a4565b60405180910390f35b34801561030e57600080fd5b50610329600480360381019061032491906114cb565b61081a565b6040516103369190611789565b60405180910390f35b34801561034b57600080fd5b50610366600480360381019061036191906114cb565b610905565b6040516103739190611789565b60405180910390f35b34801561038857600080fd5b50610391610923565b60405161039e9190611926565b60405180910390f35b6103c160048036038101906103bc9190611507565b61092b565b005b3480156103cf57600080fd5b506103d8610991565b005b3480156103e657600080fd5b5061040160048036038101906103fc9190611440565b610a59565b60405161040e9190611926565b60405180910390f35b34801561042357600080fd5b5061042c610ae0565b604051610439919061176e565b60405180910390f35b60606003805461045190611b2b565b80601f016020809104026020016040519081016040528092919081815260200182805461047d90611b2b565b80156104ca5780601f1061049f576101008083540402835291602001916104ca565b820191906000526020600020905b8154815290600101906020018083116104ad57829003601f168201915b5050505050905090565b60006104e86104e1610b06565b8484610b0e565b6001905092915050565b6000600254905090565b6000610509848484610cd9565b6000600160008673ffffffffffffffffffffffffffffffffffffffff1673ffffffffffffffffffffffffffffffffffffffff1681526020019081526020016000206000610554610b06565b73ffffffffffffffffffffffffffffffffffffffff1673ffffffffffffffffffffffffffffffffffffffff168152602001908152602001600020549050828110156105d4576040517f08c379a00000000000000000000000000000000000000000000000000000000081526004016105cb90611846565b60405180910390fd5b6105e8856105e0610b06565b858403610b0e565b60019150509392505050565b60006105fe610923565b9050600061062e61060d6104f2565b6106208585610f5a90919063ffffffff16565b610f7090919063ffffffff16565b905061063a3384610f86565b610644338261115d565b505050565b60006012905090565b60006106f461065f610b06565b84846001600061066d610b06565b73ffffffffffffffffffffffffffffffffffffffff1673ffffffffffffffffffffffffffffffffffffffff16815260200190815260200160002060008873ffffffffffffffffffffffffffffffffffffffff1673ffffffffffffffffffffffffffffffffffffffff168152602001908152602001600020546106ef919061198e565b610b0e565b6001905092915050565b60008060008373ffffffffffffffffffffffffffffffffffffffff1673ffffffffffffffffffffffffffffffffffffffff168152602001908152602001600020549050919050565b60006107836107536104f2565b610775670de0b6b3a7640000610767610923565b610f5a90919063ffffffff16565b610f7090919063ffffffff16565b905090565b60606004805461079790611b2b565b80601f01602080910402602001604051908101604052809291908181526020018280546107c390611b2b565b80156108105780601f106107e557610100808354040283529160200191610810565b820191906000526020600020905b8154815290600101906020018083116107f357829003601f168201915b5050505050905090565b60008060016000610829610b06565b73ffffffffffffffffffffffffffffffffffffffff1673ffffffffffffffffffffffffffffffffffffffff16815260200190815260200160002060008573ffffffffffffffffffffffffffffffffffffffff1673ffffffffffffffffffffffffffffffffffffffff168152602001908152602001600020549050828110156108e6576040517f08c379a00000000000000000000000000000000000000000000000000000000081526004016108dd906118e6565b60405180910390fd5b6108fa6108f1610b06565b85858403610b0e565b600191505092915050565b6000610919610912610b06565b8484610cd9565b6001905092915050565b600047905090565b6000610935610923565b90503491506000806109456104f2565b141561095357829050610982565b61097f826109716109626104f2565b86610f5a90919063ffffffff16565b610f7090919063ffffffff16565b90505b61098c3382611283565b505050565b600061099b610923565b90506109c9600560009054906101000a900473ffffffffffffffffffffffffffffffffffffffff168261115d565b600560009054906101000a900473ffffffffffffffffffffffffffffffffffffffff1673ffffffffffffffffffffffffffffffffffffffff1663e65a0117826040518263ffffffff1660e01b8152600401610a249190611926565b600060405180830381600087803b158015610a3e57600080fd5b505af1158015610a52573d6000803e3d6000fd5b5050505050565b6000600160008473ffffffffffffffffffffffffffffffffffffffff1673ffffffffffffffffffffffffffffffffffffffff16815260200190815260200160002060008373ffffffffffffffffffffffffffffffffffffffff1673ffffffffffffffffffffffffffffffffffffffff16815260200190815260200160002054905092915050565b600560009054906101000a900473ffffffffffffffffffffffffffffffffffffffff1681565b600033905090565b600073ffffffffffffffffffffffffffffffffffffffff168373ffffffffffffffffffffffffffffffffffffffff161415610b7e576040517f08c379a0000000000000000000000000000000000000000000000000000000008152600401610b75906118a6565b60405180910390fd5b600073ffffffffffffffffffffffffffffffffffffffff168273ffffffffffffffffffffffffffffffffffffffff161415610bee576040517f08c379a0000000000000000000000000000000000000000000000000000000008152600401610be590611806565b60405180910390fd5b80600160008573ffffffffffffffffffffffffffffffffffffffff1673ffffffffffffffffffffffffffffffffffffffff16815260200190815260200160002060008473ffffffffffffffffffffffffffffffffffffffff1673ffffffffffffffffffffffffffffffffffffffff168152602001908152602001600020819055508173ffffffffffffffffffffffffffffffffffffffff168373ffffffffffffffffffffffffffffffffffffffff167f8c5be1e5ebec7d5bd14f71427d1e84f3dd0314c0f7b2291e5b200ac8c7c3b92583604051610ccc9190611926565b60405180910390a3505050565b600073ffffffffffffffffffffffffffffffffffffffff168373ffffffffffffffffffffffffffffffffffffffff161415610d49576040517f08c379a0000000000000000000000000000000000000000000000000000000008152600401610d4090611886565b60405180910390fd5b600073ffffffffffffffffffffffffffffffffffffffff168273ffffffffffffffffffffffffffffffffffffffff161415610db9576040517f08c379a0000000000000000000000000000000000000000000000000000000008152600401610db0906117c6565b60405180910390fd5b610dc48383836113e3565b60008060008573ffffffffffffffffffffffffffffffffffffffff1673ffffffffffffffffffffffffffffffffffffffff16815260200190815260200160002054905081811015610e4a576040517f08c379a0000000000000000000000000000000000000000000000000000000008152600401610e4190611826565b60405180910390fd5b8181036000808673ffffffffffffffffffffffffffffffffffffffff1673ffffffffffffffffffffffffffffffffffffffff16815260200190815260200160002081905550816000808573ffffffffffffffffffffffffffffffffffffffff1673ffffffffffffffffffffffffffffffffffffffff1681526020019081526020016000206000828254610edd919061198e565b925050819055508273ffffffffffffffffffffffffffffffffffffffff168473ffffffffffffffffffffffffffffffffffffffff167fddf252ad1be2c89b69c2b068fc378daa952ba7f163c4a11628f55a4df523b3ef84604051610f419190611926565b60405180910390a3610f548484846113e8565b50505050565b60008183610f689190611a15565b905092915050565b60008183610f7e91906119e4565b905092915050565b600073ffffffffffffffffffffffffffffffffffffffff168273ffffffffffffffffffffffffffffffffffffffff161415610ff6576040517f08c379a0000000000000000000000000000000000000000000000000000000008152600401610fed90611866565b60405180910390fd5b611002826000836113e3565b60008060008473ffffffffffffffffffffffffffffffffffffffff1673ffffffffffffffffffffffffffffffffffffffff16815260200190815260200160002054905081811015611088576040517f08c379a000000000000000000000000000000000000000000000000000000000815260040161107f906117e6565b60405180910390fd5b8181036000808573ffffffffffffffffffffffffffffffffffffffff1673ffffffffffffffffffffffffffffffffffffffff1681526020019081526020016000208190555081600260008282546110df9190611a6f565b92505081905550600073ffffffffffffffffffffffffffffffffffffffff168373ffffffffffffffffffffffffffffffffffffffff167fddf252ad1be2c89b69c2b068fc378daa952ba7f163c4a11628f55a4df523b3ef846040516111449190611926565b60405180910390a3611158836000846113e8565b505050565b60008273ffffffffffffffffffffffffffffffffffffffff1682600067ffffffffffffffff8111156111b8577f4e487b7100000000000000000000000000000000000000000000000000000000600052604160045260246000fd5b6040519080825280601f01601f1916602001820160405280156111ea5781602001600182028036833780820191505090505b506040516111f89190611757565b60006040518083038185875af1925050503d8060008114611235576040519150601f19603f3d011682016040523d82523d6000602084013e61123a565b606091505b505090508061127e576040517f08c379a0000000000000000000000000000000000000000000000000000000008152600401611275906118c6565b60405180910390fd5b505050565b600073ffffffffffffffffffffffffffffffffffffffff168273ffffffffffffffffffffffffffffffffffffffff1614156112f3576040517f08c379a00000000000000000000000000000000000000000000000000000000081526004016112ea90611906565b60405180910390fd5b6112ff600083836113e3565b8060026000828254611311919061198e565b92505081905550806000808473ffffffffffffffffffffffffffffffffffffffff1673ffffffffffffffffffffffffffffffffffffffff1681526020019081526020016000206000828254611366919061198e565b925050819055508173ffffffffffffffffffffffffffffffffffffffff16600073ffffffffffffffffffffffffffffffffffffffff167fddf252ad1be2c89b69c2b068fc378daa952ba7f163c4a11628f55a4df523b3ef836040516113cb9190611926565b60405180910390a36113df600083836113e8565b5050565b505050565b505050565b6000813590506113fc81611f14565b92915050565b60008135905061141181611f2b565b92915050565b60006020828403121561142957600080fd5b6000611437848285016113ed565b91505092915050565b6000806040838503121561145357600080fd5b6000611461858286016113ed565b9250506020611472858286016113ed565b9150509250929050565b60008060006060848603121561149157600080fd5b600061149f868287016113ed565b93505060206114b0868287016113ed565b92505060406114c186828701611402565b9150509250925092565b600080604083850312156114de57600080fd5b60006114ec858286016113ed565b92505060206114fd85828601611402565b9150509250929050565b60006020828403121561151957600080fd5b600061152784828501611402565b91505092915050565b61153981611aa3565b82525050565b61154881611ab5565b82525050565b60006115598261195c565b6115638185611972565b9350611573818560208601611af8565b80840191505092915050565b600061158a82611967565b611594818561197d565b93506115a4818560208601611af8565b6115ad81611bea565b840191505092915050565b60006115c560238361197d565b91506115d082611bfb565b604082019050919050565b60006115e860228361197d565b91506115f382611c4a565b604082019050919050565b600061160b60228361197d565b915061161682611c99565b604082019050919050565b600061162e60268361197d565b915061163982611ce8565b604082019050919050565b600061165160288361197d565b915061165c82611d37565b604082019050919050565b600061167460218361197d565b915061167f82611d86565b604082019050919050565b600061169760258361197d565b91506116a282611dd5565b604082019050919050565b60006116ba60248361197d565b91506116c582611e24565b604082019050919050565b60006116dd60138361197d565b91506116e882611e73565b602082019050919050565b600061170060258361197d565b915061170b82611e9c565b604082019050919050565b6000611723601f8361197d565b915061172e82611eeb565b602082019050919050565b61174281611ae1565b82525050565b61175181611aeb565b82525050565b6000611763828461154e565b915081905092915050565b60006020820190506117836000830184611530565b92915050565b600060208201905061179e600083018461153f565b92915050565b600060208201905081810360008301526117be818461157f565b905092915050565b600060208201905081810360008301526117df816115b8565b9050919050565b600060208201905081810360008301526117ff816115db565b9050919050565b6000602082019050818103600083015261181f816115fe565b9050919050565b6000602082019050818103600083015261183f81611621565b9050919050565b6000602082019050818103600083015261185f81611644565b9050919050565b6000602082019050818103600083015261187f81611667565b9050919050565b6000602082019050818103600083015261189f8161168a565b9050919050565b600060208201905081810360008301526118bf816116ad565b9050919050565b600060208201905081810360008301526118df816116d0565b9050919050565b600060208201905081810360008301526118ff816116f3565b9050919050565b6000602082019050818103600083015261191f81611716565b9050919050565b600060208201905061193b6000830184611739565b92915050565b60006020820190506119566000830184611748565b92915050565b600081519050919050565b600081519050919050565b600081905092915050565b600082825260208201905092915050565b600061199982611ae1565b91506119a483611ae1565b9250827fffffffffffffffffffffffffffffffffffffffffffffffffffffffffffffffff038211156119d9576119d8611b5d565b5b828201905092915050565b60006119ef82611ae1565b91506119fa83611ae1565b925082611a0a57611a09611b8c565b5b828204905092915050565b6000611a2082611ae1565b9150611a2b83611ae1565b9250817fffffffffffffffffffffffffffffffffffffffffffffffffffffffffffffffff0483118215151615611a6457611a63611b5d565b5b828202905092915050565b6000611a7a82611ae1565b9150611a8583611ae1565b925082821015611a9857611a97611b5d565b5b828203905092915050565b6000611aae82611ac1565b9050919050565b60008115159050919050565b600073ffffffffffffffffffffffffffffffffffffffff82169050919050565b6000819050919050565b600060ff82169050919050565b60005b83811015611b16578082015181840152602081019050611afb565b83811115611b25576000848401525b50505050565b60006002820490506001821680611b4357607f821691505b60208210811415611b5757611b56611bbb565b5b50919050565b7f4e487b7100000000000000000000000000000000000000000000000000000000600052601160045260246000fd5b7f4e487b7100000000000000000000000000000000000000000000000000000000600052601260045260246000fd5b7f4e487b7100000000000000000000000000000000000000000000000000000000600052602260045260246000fd5b6000601f19601f8301169050919050565b7f45524332303a207472616e7366657220746f20746865207a65726f206164647260008201527f6573730000000000000000000000000000000000000000000000000000000000602082015250565b7f45524332303a206275726e20616d6f756e7420657863656564732062616c616e60008201527f6365000000000000000000000000000000000000000000000000000000000000602082015250565b7f45524332303a20617070726f766520746f20746865207a65726f20616464726560008201527f7373000000000000000000000000000000000000000000000000000000000000602082015250565b7f45524332303a207472616e7366657220616d6f756e742065786365656473206260008201527f616c616e63650000000000000000000000000000000000000000000000000000602082015250565b7f45524332303a207472616e7366657220616d6f756e742065786365656473206160008201527f6c6c6f77616e6365000000000000000000000000000000000000000000000000602082015250565b7f45524332303a206275726e2066726f6d20746865207a65726f2061646472657360008201527f7300000000000000000000000000000000000000000000000000000000000000602082015250565b7f45524332303a207472616e736665722066726f6d20746865207a65726f20616460008201527f6472657373000000000000000000000000000000000000000000000000000000602082015250565b7f45524332303a20617070726f76652066726f6d20746865207a65726f2061646460008201527f7265737300000000000000000000000000000000000000000000000000000000602082015250565b7f4554485f5452414e534645525f4641494c454400000000000000000000000000600082015250565b7f45524332303a2064656372656173656420616c6c6f77616e63652062656c6f7760008201527f207a65726f000000000000000000000000000000000000000000000000000000602082015250565b7f45524332303a206d696e7420746f20746865207a65726f206164647265737300600082015250565b611f1d81611aa3565b8114611f2857600080fd5b50565b611f3481611ae1565b8114611f3f57600080fd5b5056fea264697066735822122045ef002fbdf4aacf485857835248338907d2a5049e7509ef6e8e4ee9af2cea6564736f6c63430008040033",
  "devdoc": {
    "kind": "dev",
    "methods": {
      "allowance(address,address)": {
        "details": "See {IERC20-allowance}."
      },
      "approve(address,uint256)": {
        "details": "See {IERC20-approve}. Requirements: - `spender` cannot be the zero address."
      },
      "balanceOf(address)": {
        "details": "See {IERC20-balanceOf}."
      },
      "decimals()": {
        "details": "Returns the number of decimals used to get its user representation. For example, if `decimals` equals `2`, a balance of `505` tokens should be displayed to a user as `5.05` (`505 / 10 ** 2`). Tokens usually opt for a value of 18, imitating the relationship between Ether and Wei. This is the value {ERC20} uses, unless this function is overridden; NOTE: This information is only used for _display_ purposes: it in no way affects any of the arithmetic of the contract, including {IERC20-balanceOf} and {IERC20-transfer}."
      },
      "decreaseAllowance(address,uint256)": {
        "details": "Atomically decreases the allowance granted to `spender` by the caller. This is an alternative to {approve} that can be used as a mitigation for problems described in {IERC20-approve}. Emits an {Approval} event indicating the updated allowance. Requirements: - `spender` cannot be the zero address. - `spender` must have allowance for the caller of at least `subtractedValue`."
      },
      "increaseAllowance(address,uint256)": {
        "details": "Atomically increases the allowance granted to `spender` by the caller. This is an alternative to {approve} that can be used as a mitigation for problems described in {IERC20-approve}. Emits an {Approval} event indicating the updated allowance. Requirements: - `spender` cannot be the zero address."
      },
      "name()": {
        "details": "Returns the name of the token."
      },
      "symbol()": {
        "details": "Returns the symbol of the token, usually a shorter version of the name."
      },
      "totalSupply()": {
        "details": "See {IERC20-totalSupply}."
      },
      "transfer(address,uint256)": {
        "details": "See {IERC20-transfer}. Requirements: - `recipient` cannot be the zero address. - the caller must have a balance of at least `amount`."
      },
      "transferFrom(address,address,uint256)": {
        "details": "See {IERC20-transferFrom}. Emits an {Approval} event indicating the updated allowance. This is not required by the EIP. See the note at the beginning of {ERC20}. Requirements: - `sender` and `recipient` cannot be the zero address. - `sender` must have a balance of at least `amount`. - the caller must have allowance for ``sender``'s tokens of at least `amount`."
      }
    },
    "version": 1
  },
  "userdoc": {
    "kind": "user",
    "methods": {},
    "version": 1
  },
  "storageLayout": {
    "storage": [
      {
        "astId": 119,
        "contract": "contracts/protocol/Vault.sol:Vault",
        "label": "_balances",
        "offset": 0,
        "slot": "0",
        "type": "t_mapping(t_address,t_uint256)"
      },
      {
        "astId": 125,
        "contract": "contracts/protocol/Vault.sol:Vault",
        "label": "_allowances",
        "offset": 0,
        "slot": "1",
        "type": "t_mapping(t_address,t_mapping(t_address,t_uint256))"
      },
      {
        "astId": 127,
        "contract": "contracts/protocol/Vault.sol:Vault",
        "label": "_totalSupply",
        "offset": 0,
        "slot": "2",
        "type": "t_uint256"
      },
      {
        "astId": 129,
        "contract": "contracts/protocol/Vault.sol:Vault",
        "label": "_name",
        "offset": 0,
        "slot": "3",
        "type": "t_string_storage"
      },
      {
        "astId": 131,
        "contract": "contracts/protocol/Vault.sol:Vault",
        "label": "_symbol",
        "offset": 0,
        "slot": "4",
        "type": "t_string_storage"
      },
      {
        "astId": 2138,
        "contract": "contracts/protocol/Vault.sol:Vault",
        "label": "controller",
        "offset": 0,
        "slot": "5",
        "type": "t_address"
      }
    ],
    "types": {
      "t_address": {
        "encoding": "inplace",
        "label": "address",
        "numberOfBytes": "20"
      },
      "t_mapping(t_address,t_mapping(t_address,t_uint256))": {
        "encoding": "mapping",
        "key": "t_address",
        "label": "mapping(address => mapping(address => uint256))",
        "numberOfBytes": "32",
        "value": "t_mapping(t_address,t_uint256)"
      },
      "t_mapping(t_address,t_uint256)": {
        "encoding": "mapping",
        "key": "t_address",
        "label": "mapping(address => uint256)",
        "numberOfBytes": "32",
        "value": "t_uint256"
      },
      "t_string_storage": {
        "encoding": "bytes",
        "label": "string",
        "numberOfBytes": "32"
      },
      "t_uint256": {
        "encoding": "inplace",
        "label": "uint256",
        "numberOfBytes": "32"
      }
    }
  }
}