{
  "address": "0xb0F3Cea41A5F577603874fF742cEd22F5d578351",
  "abi": [
    {
      "inputs": [],
      "stateMutability": "nonpayable",
      "type": "constructor"
    },
    {
      "inputs": [
        {
          "internalType": "uint256",
          "name": "_amount",
          "type": "uint256"
        }
      ],
      "name": "earn",
      "outputs": [],
      "stateMutability": "nonpayable",
      "type": "function"
    },
    {
      "inputs": [],
      "name": "governance",
      "outputs": [
        {
          "internalType": "address",
          "name": "",
          "type": "address"
        }
      ],
      "stateMutability": "view",
      "type": "function"
    },
    {
      "inputs": [
        {
          "internalType": "address",
          "name": "_strategy",
          "type": "address"
        }
      ],
      "name": "setStrategy",
      "outputs": [],
      "stateMutability": "nonpayable",
      "type": "function"
    },
    {
      "inputs": [
        {
          "internalType": "address",
          "name": "_vault",
          "type": "address"
        }
      ],
      "name": "setVault",
      "outputs": [],
      "stateMutability": "nonpayable",
      "type": "function"
    },
    {
      "inputs": [],
      "name": "strategy",
      "outputs": [
        {
          "internalType": "address",
          "name": "",
          "type": "address"
        }
      ],
      "stateMutability": "view",
      "type": "function"
    },
    {
      "inputs": [],
      "name": "vault",
      "outputs": [
        {
          "internalType": "address",
          "name": "",
          "type": "address"
        }
      ],
      "stateMutability": "view",
      "type": "function"
    },
    {
      "inputs": [
        {
          "internalType": "uint256",
          "name": "_amount",
          "type": "uint256"
        }
      ],
      "name": "withdraw",
      "outputs": [],
      "stateMutability": "nonpayable",
      "type": "function"
    },
    {
      "inputs": [],
      "name": "withdrawAll",
      "outputs": [],
      "stateMutability": "nonpayable",
      "type": "function"
    },
    {
      "stateMutability": "payable",
      "type": "receive"
    }
  ],
  "transactionHash": "0x11c2e61184b5091eb253e9811f00951ac3321e73d1ed1f7734f62051e7cf380c",
  "args": [],
  "solcInputHash": "2b81705ccd7aed8eb0b8fbb83d8bd2bf",
  "bytecode": "0x608060405234801561001057600080fd5b5033600160006101000a81548173ffffffffffffffffffffffffffffffffffffffff021916908373ffffffffffffffffffffffffffffffffffffffff160217905550610c3b806100616000396000f3fe60806040526004361061007f5760003560e01c8063853828b61161004e578063853828b614610131578063a8c62e7614610148578063e65a011714610173578063fbfa77cf1461019c57610086565b80632e1a7d4d1461008b57806333a100ca146100b45780635aa6e675146100dd5780636817031b1461010857610086565b3661008657005b600080fd5b34801561009757600080fd5b506100b260048036038101906100ad91906108cc565b6101c7565b005b3480156100c057600080fd5b506100db60048036038101906100d691906108a3565b6102e5565b005b3480156100e957600080fd5b506100f26103b9565b6040516100ff91906109e7565b60405180910390f35b34801561011457600080fd5b5061012f600480360381019061012a91906108a3565b6103df565b005b34801561013d57600080fd5b506101466104b2565b005b34801561015457600080fd5b5061015d6105c6565b60405161016a91906109e7565b60405180910390f35b34801561017f57600080fd5b5061019a600480360381019061019591906108cc565b6105ec565b005b3480156101a857600080fd5b506101b161072f565b6040516101be91906109e7565b60405180910390f35b60008054906101000a900473ffffffffffffffffffffffffffffffffffffffff1673ffffffffffffffffffffffffffffffffffffffff163373ffffffffffffffffffffffffffffffffffffffff1614610255576040517f08c379a000000000000000000000000000000000000000000000000000000000815260040161024c90610a42565b60405180910390fd5b600260009054906101000a900473ffffffffffffffffffffffffffffffffffffffff1673ffffffffffffffffffffffffffffffffffffffff16632e1a7d4d826040518263ffffffff1660e01b81526004016102b09190610a82565b600060405180830381600087803b1580156102ca57600080fd5b505af11580156102de573d6000803e3d6000fd5b5050505050565b600160009054906101000a900473ffffffffffffffffffffffffffffffffffffffff1673ffffffffffffffffffffffffffffffffffffffff163373ffffffffffffffffffffffffffffffffffffffff1614610375576040517f08c379a000000000000000000000000000000000000000000000000000000000815260040161036c90610a02565b60405180910390fd5b80600260006101000a81548173ffffffffffffffffffffffffffffffffffffffff021916908373ffffffffffffffffffffffffffffffffffffffff16021790555050565b600160009054906101000a900473ffffffffffffffffffffffffffffffffffffffff1681565b600160009054906101000a900473ffffffffffffffffffffffffffffffffffffffff1673ffffffffffffffffffffffffffffffffffffffff163373ffffffffffffffffffffffffffffffffffffffff161461046f576040517f08c379a000000000000000000000000000000000000000000000000000000000815260040161046690610a02565b60405180910390fd5b806000806101000a81548173ffffffffffffffffffffffffffffffffffffffff021916908373ffffffffffffffffffffffffffffffffffffffff16021790555050565b600160009054906101000a900473ffffffffffffffffffffffffffffffffffffffff1673ffffffffffffffffffffffffffffffffffffffff163373ffffffffffffffffffffffffffffffffffffffff1614610542576040517f08c379a000000000000000000000000000000000000000000000000000000000815260040161053990610a02565b60405180910390fd5b600260009054906101000a900473ffffffffffffffffffffffffffffffffffffffff1673ffffffffffffffffffffffffffffffffffffffff1663853828b66040518163ffffffff1660e01b8152600401600060405180830381600087803b1580156105ac57600080fd5b505af11580156105c0573d6000803e3d6000fd5b50505050565b600260009054906101000a900473ffffffffffffffffffffffffffffffffffffffff1681565b600073ffffffffffffffffffffffffffffffffffffffff16600260009054906101000a900473ffffffffffffffffffffffffffffffffffffffff1673ffffffffffffffffffffffffffffffffffffffff16141561067e576040517f08c379a000000000000000000000000000000000000000000000000000000000815260040161067590610a22565b60405180910390fd5b6106aa600260009054906101000a900473ffffffffffffffffffffffffffffffffffffffff1682610753565b600260009054906101000a900473ffffffffffffffffffffffffffffffffffffffff1673ffffffffffffffffffffffffffffffffffffffff1663d0e30db06040518163ffffffff1660e01b8152600401600060405180830381600087803b15801561071457600080fd5b505af1158015610728573d6000803e3d6000fd5b5050505050565b60008054906101000a900473ffffffffffffffffffffffffffffffffffffffff1681565b60008273ffffffffffffffffffffffffffffffffffffffff1682600067ffffffffffffffff8111156107ae577f4e487b7100000000000000000000000000000000000000000000000000000000600052604160045260246000fd5b6040519080825280601f01601f1916602001820160405280156107e05781602001600182028036833780820191505090505b506040516107ee91906109d0565b60006040518083038185875af1925050503d806000811461082b576040519150601f19603f3d011682016040523d82523d6000602084013e610830565b606091505b5050905080610874576040517f08c379a000000000000000000000000000000000000000000000000000000000815260040161086b90610a62565b60405180910390fd5b505050565b60008135905061088881610bd7565b92915050565b60008135905061089d81610bee565b92915050565b6000602082840312156108b557600080fd5b60006108c384828501610879565b91505092915050565b6000602082840312156108de57600080fd5b60006108ec8482850161088e565b91505092915050565b6108fe81610ac4565b82525050565b600061090f82610a9d565b6109198185610aa8565b9350610929818560208601610b00565b80840191505092915050565b6000610942600b83610ab3565b915061094d82610b33565b602082019050919050565b6000610965600b83610ab3565b915061097082610b5c565b602082019050919050565b6000610988600683610ab3565b915061099382610b85565b602082019050919050565b60006109ab601383610ab3565b91506109b682610bae565b602082019050919050565b6109ca81610af6565b82525050565b60006109dc8284610904565b915081905092915050565b60006020820190506109fc60008301846108f5565b92915050565b60006020820190508181036000830152610a1b81610935565b9050919050565b60006020820190508181036000830152610a3b81610958565b9050919050565b60006020820190508181036000830152610a5b8161097b565b9050919050565b60006020820190508181036000830152610a7b8161099e565b9050919050565b6000602082019050610a9760008301846109c1565b92915050565b600081519050919050565b600081905092915050565b600082825260208201905092915050565b6000610acf82610ad6565b9050919050565b600073ffffffffffffffffffffffffffffffffffffffff82169050919050565b6000819050919050565b60005b83811015610b1e578082015181840152602081019050610b03565b83811115610b2d576000848401525b50505050565b7f21676f7665726e616e6365000000000000000000000000000000000000000000600082015250565b7f6e6f207374726174656779000000000000000000000000000000000000000000600082015250565b7f217661756c740000000000000000000000000000000000000000000000000000600082015250565b7f4554485f5452414e534645525f4641494c454400000000000000000000000000600082015250565b610be081610ac4565b8114610beb57600080fd5b50565b610bf781610af6565b8114610c0257600080fd5b5056fea264697066735822122078866a7990b99e95f751ad04bc0f9d2e41125c56d27d9552c18a3834160eba9f64736f6c63430008040033",
  "devdoc": {
    "kind": "dev",
    "methods": {},
    "version": 1
  },
  "userdoc": {
    "kind": "user",
    "methods": {},
    "version": 1
  },
  "storageLayout": {
    "storage": [
      {
        "astId": 1978,
        "contract": "contracts/protocol/Controller.sol:Controller",
        "label": "vault",
        "offset": 0,
        "slot": "0",
        "type": "t_address"
      },
      {
        "astId": 1980,
        "contract": "contracts/protocol/Controller.sol:Controller",
        "label": "governance",
        "offset": 0,
        "slot": "1",
        "type": "t_address"
      },
      {
        "astId": 1982,
        "contract": "contracts/protocol/Controller.sol:Controller",
        "label": "strategy",
        "offset": 0,
        "slot": "2",
        "type": "t_address"
      }
    ],
    "types": {
      "t_address": {
        "encoding": "inplace",
        "label": "address",
        "numberOfBytes": "20"
      }
    }
  }
}