{
  "address": "0x31a3DcbbBF10AE1235475d3b312ae9AB30f285e0",
  "abi": [
    {
      "inputs": [
        {
          "internalType": "address",
          "name": "_controller",
          "type": "address"
        },
        {
          "internalType": "address",
          "name": "_aaveConnector",
          "type": "address"
        },
        {
          "internalType": "address",
          "name": "_aWETHToken",
          "type": "address"
        },
        {
          "internalType": "address",
          "name": "_wethGatewayAddress",
          "type": "address"
        }
      ],
      "stateMutability": "nonpayable",
      "type": "constructor"
    },
    {
      "inputs": [],
      "name": "aWETH",
      "outputs": [
        {
          "internalType": "address",
          "name": "",
          "type": "address"
        }
      ],
      "stateMutability": "view",
      "type": "function"
    },
    {
      "inputs": [],
      "name": "aaveInterfaceAddress",
      "outputs": [
        {
          "internalType": "address",
          "name": "",
          "type": "address"
        }
      ],
      "stateMutability": "view",
      "type": "function"
    },
    {
      "inputs": [],
      "name": "controller",
      "outputs": [
        {
          "internalType": "address",
          "name": "",
          "type": "address"
        }
      ],
      "stateMutability": "view",
      "type": "function"
    },
    {
      "inputs": [],
      "name": "deposit",
      "outputs": [],
      "stateMutability": "nonpayable",
      "type": "function"
    },
    {
      "inputs": [],
      "name": "governance",
      "outputs": [
        {
          "internalType": "address",
          "name": "",
          "type": "address"
        }
      ],
      "stateMutability": "view",
      "type": "function"
    },
    {
      "inputs": [],
      "name": "vault",
      "outputs": [
        {
          "internalType": "address",
          "name": "",
          "type": "address"
        }
      ],
      "stateMutability": "view",
      "type": "function"
    },
    {
      "inputs": [],
      "name": "wethGatewayAddress",
      "outputs": [
        {
          "internalType": "address",
          "name": "",
          "type": "address"
        }
      ],
      "stateMutability": "view",
      "type": "function"
    },
    {
      "inputs": [
        {
          "internalType": "uint256",
          "name": "_amount",
          "type": "uint256"
        }
      ],
      "name": "withdraw",
      "outputs": [],
      "stateMutability": "nonpayable",
      "type": "function"
    },
    {
      "inputs": [],
      "name": "withdrawAll",
      "outputs": [],
      "stateMutability": "nonpayable",
      "type": "function"
    },
    {
      "stateMutability": "payable",
      "type": "receive"
    }
  ],
  "transactionHash": "0x9b767178ded0bdd2d95e8b8e6f0744b11c6f69b75e18d581c3afdba81aa4f685",
  "args": [
    "0xb0F3Cea41A5F577603874fF742cEd22F5d578351",
    "0x74699311812969c98D0CDeaed1Cd8F3E22Deff0e",
    "0x87b1f4cf9BD63f7BBD3eE1aD04E8F52540349347",
    "0xA61ca04DF33B72b235a8A28CfB535bb7A5271B70"
  ],
  "solcInputHash": "2b81705ccd7aed8eb0b8fbb83d8bd2bf",
  "bytecode": "0x60806040523480156200001157600080fd5b50604051620011353803806200113583398181016040528101906200003791906200019c565b336000806101000a81548173ffffffffffffffffffffffffffffffffffffffff021916908373ffffffffffffffffffffffffffffffffffffffff16021790555083600160006101000a81548173ffffffffffffffffffffffffffffffffffffffff021916908373ffffffffffffffffffffffffffffffffffffffff16021790555082600560006101000a81548173ffffffffffffffffffffffffffffffffffffffff021916908373ffffffffffffffffffffffffffffffffffffffff16021790555081600360006101000a81548173ffffffffffffffffffffffffffffffffffffffff021916908373ffffffffffffffffffffffffffffffffffffffff16021790555080600460006101000a81548173ffffffffffffffffffffffffffffffffffffffff021916908373ffffffffffffffffffffffffffffffffffffffff1602179055505050505062000256565b60008151905062000196816200023c565b92915050565b60008060008060808587031215620001b357600080fd5b6000620001c38782880162000185565b9450506020620001d68782880162000185565b9350506040620001e98782880162000185565b9250506060620001fc8782880162000185565b91505092959194509250565b600062000215826200021c565b9050919050565b600073ffffffffffffffffffffffffffffffffffffffff82169050919050565b620002478162000208565b81146200025357600080fd5b50565b610ecf80620002666000396000f3fe60806040526004361061008a5760003560e01c8063853828b611610059578063853828b614610140578063d0e30db014610157578063d633590a1461016e578063f77c479114610199578063fbfa77cf146101c457610091565b806322db78d8146100965780632e1a7d4d146100c15780635aa6e675146100ea5780636d2a583a1461011557610091565b3661009157005b600080fd5b3480156100a257600080fd5b506100ab6101ef565b6040516100b89190610ca5565b60405180910390f35b3480156100cd57600080fd5b506100e860048036038101906100e39190610ba7565b610215565b005b3480156100f657600080fd5b506100ff6102dd565b60405161010c9190610ca5565b60405180910390f35b34801561012157600080fd5b5061012a610301565b6040516101379190610ca5565b60405180910390f35b34801561014c57600080fd5b50610155610327565b005b34801561016357600080fd5b5061016c61069d565b005b34801561017a57600080fd5b5061018361075e565b6040516101909190610ca5565b60405180910390f35b3480156101a557600080fd5b506101ae610784565b6040516101bb9190610ca5565b60405180910390f35b3480156101d057600080fd5b506101d96107aa565b6040516101e69190610ca5565b60405180910390f35b600560009054906101000a900473ffffffffffffffffffffffffffffffffffffffff1681565b600160009054906101000a900473ffffffffffffffffffffffffffffffffffffffff1673ffffffffffffffffffffffffffffffffffffffff163373ffffffffffffffffffffffffffffffffffffffff16146102a5576040517f08c379a000000000000000000000000000000000000000000000000000000000815260040161029c90610d20565b60405180910390fd5b6102ae816107d0565b6102da600260009054906101000a900473ffffffffffffffffffffffffffffffffffffffff16826109db565b50565b60008054906101000a900473ffffffffffffffffffffffffffffffffffffffff1681565b600360009054906101000a900473ffffffffffffffffffffffffffffffffffffffff1681565b600160009054906101000a900473ffffffffffffffffffffffffffffffffffffffff1673ffffffffffffffffffffffffffffffffffffffff163373ffffffffffffffffffffffffffffffffffffffff16146103b7576040517f08c379a00000000000000000000000000000000000000000000000000000000081526004016103ae90610d20565b60405180910390fd5b6000600360009054906101000a900473ffffffffffffffffffffffffffffffffffffffff1673ffffffffffffffffffffffffffffffffffffffff166370a08231306040518263ffffffff1660e01b81526004016104149190610ca5565b60206040518083038186803b15801561042c57600080fd5b505afa158015610440573d6000803e3d6000fd5b505050506040513d601f19601f820116820180604052508101906104649190610bd0565b9050600360009054906101000a900473ffffffffffffffffffffffffffffffffffffffff1673ffffffffffffffffffffffffffffffffffffffff1663095ea7b3600460009054906101000a900473ffffffffffffffffffffffffffffffffffffffff16836040518363ffffffff1660e01b81526004016104e5929190610cc0565b602060405180830381600087803b1580156104ff57600080fd5b505af1158015610513573d6000803e3d6000fd5b505050506040513d601f19601f820116820180604052508101906105379190610b7e565b506000600560009054906101000a900473ffffffffffffffffffffffffffffffffffffffff1673ffffffffffffffffffffffffffffffffffffffff16634dd366bc6040518163ffffffff1660e01b815260040160206040518083038186803b1580156105a257600080fd5b505afa1580156105b6573d6000803e3d6000fd5b505050506040513d601f19601f820116820180604052508101906105da9190610b55565b9050600460009054906101000a900473ffffffffffffffffffffffffffffffffffffffff1673ffffffffffffffffffffffffffffffffffffffff166380500d208284306040518463ffffffff1660e01b815260040161063b93929190610ce9565b600060405180830381600087803b15801561065557600080fd5b505af1158015610669573d6000803e3d6000fd5b50505050610699600260009054906101000a900473ffffffffffffffffffffffffffffffffffffffff16836109db565b5050565b6000479050600081111561075b57600560009054906101000a900473ffffffffffffffffffffffffffffffffffffffff1673ffffffffffffffffffffffffffffffffffffffff16632d2da80682306040518363ffffffff1660e01b81526004016107079190610ca5565b6020604051808303818588803b15801561072057600080fd5b505af1158015610734573d6000803e3d6000fd5b50505050506040513d601f19601f820116820180604052508101906107599190610b7e565b505b50565b600460009054906101000a900473ffffffffffffffffffffffffffffffffffffffff1681565b600160009054906101000a900473ffffffffffffffffffffffffffffffffffffffff1681565b600260009054906101000a900473ffffffffffffffffffffffffffffffffffffffff1681565b6000600560009054906101000a900473ffffffffffffffffffffffffffffffffffffffff1673ffffffffffffffffffffffffffffffffffffffff16634dd366bc6040518163ffffffff1660e01b815260040160206040518083038186803b15801561083a57600080fd5b505afa15801561084e573d6000803e3d6000fd5b505050506040513d601f19601f820116820180604052508101906108729190610b55565b9050600360009054906101000a900473ffffffffffffffffffffffffffffffffffffffff1673ffffffffffffffffffffffffffffffffffffffff1663095ea7b3600460009054906101000a900473ffffffffffffffffffffffffffffffffffffffff16846040518363ffffffff1660e01b81526004016108f3929190610cc0565b602060405180830381600087803b15801561090d57600080fd5b505af1158015610921573d6000803e3d6000fd5b505050506040513d601f19601f820116820180604052508101906109459190610b7e565b50600460009054906101000a900473ffffffffffffffffffffffffffffffffffffffff1673ffffffffffffffffffffffffffffffffffffffff166380500d208284306040518463ffffffff1660e01b81526004016109a593929190610ce9565b600060405180830381600087803b1580156109bf57600080fd5b505af11580156109d3573d6000803e3d6000fd5b505050505050565b60008273ffffffffffffffffffffffffffffffffffffffff1682600067ffffffffffffffff811115610a36577f4e487b7100000000000000000000000000000000000000000000000000000000600052604160045260246000fd5b6040519080825280601f01601f191660200182016040528015610a685781602001600182028036833780820191505090505b50604051610a769190610c8e565b60006040518083038185875af1925050503d8060008114610ab3576040519150601f19603f3d011682016040523d82523d6000602084013e610ab8565b606091505b5050905080610afc576040517f08c379a0000000000000000000000000000000000000000000000000000000008152600401610af390610d40565b60405180910390fd5b505050565b600081519050610b1081610e54565b92915050565b600081519050610b2581610e6b565b92915050565b600081359050610b3a81610e82565b92915050565b600081519050610b4f81610e82565b92915050565b600060208284031215610b6757600080fd5b6000610b7584828501610b01565b91505092915050565b600060208284031215610b9057600080fd5b6000610b9e84828501610b16565b91505092915050565b600060208284031215610bb957600080fd5b6000610bc784828501610b2b565b91505092915050565b600060208284031215610be257600080fd5b6000610bf084828501610b40565b91505092915050565b610c0281610d87565b82525050565b6000610c1382610d60565b610c1d8185610d6b565b9350610c2d818560208601610dcf565b80840191505092915050565b6000610c46600b83610d76565b9150610c5182610e02565b602082019050919050565b6000610c69601383610d76565b9150610c7482610e2b565b602082019050919050565b610c8881610dc5565b82525050565b6000610c9a8284610c08565b915081905092915050565b6000602082019050610cba6000830184610bf9565b92915050565b6000604082019050610cd56000830185610bf9565b610ce26020830184610c7f565b9392505050565b6000606082019050610cfe6000830186610bf9565b610d0b6020830185610c7f565b610d186040830184610bf9565b949350505050565b60006020820190508181036000830152610d3981610c39565b9050919050565b60006020820190508181036000830152610d5981610c5c565b9050919050565b600081519050919050565b600081905092915050565b600082825260208201905092915050565b6000610d9282610da5565b9050919050565b60008115159050919050565b600073ffffffffffffffffffffffffffffffffffffffff82169050919050565b6000819050919050565b60005b83811015610ded578082015181840152602081019050610dd2565b83811115610dfc576000848401525b50505050565b7f21636f6e74726f6c6c6572000000000000000000000000000000000000000000600082015250565b7f4554485f5452414e534645525f4641494c454400000000000000000000000000600082015250565b610e5d81610d87565b8114610e6857600080fd5b50565b610e7481610d99565b8114610e7f57600080fd5b50565b610e8b81610dc5565b8114610e9657600080fd5b5056fea26469706673582212207714fb82fd413996c1bb3943257f889efa43e10b592b03e39758aa3ea967f65d64736f6c63430008040033",
  "devdoc": {
    "kind": "dev",
    "methods": {},
    "version": 1
  },
  "userdoc": {
    "kind": "user",
    "methods": {},
    "version": 1
  },
  "storageLayout": {
    "storage": [
      {
        "astId": 2326,
        "contract": "contracts/protocol/strategy/ETHStrategy.sol:ETHStrategy",
        "label": "governance",
        "offset": 0,
        "slot": "0",
        "type": "t_address"
      },
      {
        "astId": 2328,
        "contract": "contracts/protocol/strategy/ETHStrategy.sol:ETHStrategy",
        "label": "controller",
        "offset": 0,
        "slot": "1",
        "type": "t_address"
      },
      {
        "astId": 2330,
        "contract": "contracts/protocol/strategy/ETHStrategy.sol:ETHStrategy",
        "label": "vault",
        "offset": 0,
        "slot": "2",
        "type": "t_address"
      },
      {
        "astId": 2332,
        "contract": "contracts/protocol/strategy/ETHStrategy.sol:ETHStrategy",
        "label": "aWETH",
        "offset": 0,
        "slot": "3",
        "type": "t_address"
      },
      {
        "astId": 2334,
        "contract": "contracts/protocol/strategy/ETHStrategy.sol:ETHStrategy",
        "label": "wethGatewayAddress",
        "offset": 0,
        "slot": "4",
        "type": "t_address"
      },
      {
        "astId": 2336,
        "contract": "contracts/protocol/strategy/ETHStrategy.sol:ETHStrategy",
        "label": "aaveInterfaceAddress",
        "offset": 0,
        "slot": "5",
        "type": "t_address"
      }
    ],
    "types": {
      "t_address": {
        "encoding": "inplace",
        "label": "address",
        "numberOfBytes": "20"
      }
    }
  }
}