{
  "address": "0xbcfd237db833ebb7a638014fbd89d15700801c10",
  "abi": [
    {
      "inputs": [
        {
          "internalType": "address",
          "name": "_controller",
          "type": "address"
        }
      ],
      "stateMutability": "nonpayable",
      "type": "constructor"
    },
    {
      "anonymous": false,
      "inputs": [
        {
          "indexed": true,
          "internalType": "address",
          "name": "owner",
          "type": "address"
        },
        {
          "indexed": true,
          "internalType": "address",
          "name": "spender",
          "type": "address"
        },
        {
          "indexed": false,
          "internalType": "uint256",
          "name": "value",
          "type": "uint256"
        }
      ],
      "name": "Approval",
      "type": "event"
    },
    {
      "anonymous": false,
      "inputs": [
        {
          "indexed": true,
          "internalType": "address",
          "name": "from",
          "type": "address"
        },
        {
          "indexed": true,
          "internalType": "address",
          "name": "to",
          "type": "address"
        },
        {
          "indexed": false,
          "internalType": "uint256",
          "name": "value",
          "type": "uint256"
        }
      ],
      "name": "Transfer",
      "type": "event"
    },
    {
      "inputs": [
        {
          "internalType": "address",
          "name": "owner",
          "type": "address"
        },
        {
          "internalType": "address",
          "name": "spender",
          "type": "address"
        }
      ],
      "name": "allowance",
      "outputs": [
        {
          "internalType": "uint256",
          "name": "",
          "type": "uint256"
        }
      ],
      "stateMutability": "view",
      "type": "function"
    },
    {
      "inputs": [
        {
          "internalType": "address",
          "name": "spender",
          "type": "address"
        },
        {
          "internalType": "uint256",
          "name": "amount",
          "type": "uint256"
        }
      ],
      "name": "approve",
      "outputs": [
        {
          "internalType": "bool",
          "name": "",
          "type": "bool"
        }
      ],
      "stateMutability": "nonpayable",
      "type": "function"
    },
    {
      "inputs": [],
      "name": "balance",
      "outputs": [
        {
          "internalType": "uint256",
          "name": "",
          "type": "uint256"
        }
      ],
      "stateMutability": "view",
      "type": "function"
    },
    {
      "inputs": [
        {
          "internalType": "address",
          "name": "account",
          "type": "address"
        }
      ],
      "name": "balanceOf",
      "outputs": [
        {
          "internalType": "uint256",
          "name": "",
          "type": "uint256"
        }
      ],
      "stateMutability": "view",
      "type": "function"
    },
    {
      "inputs": [],
      "name": "controller",
      "outputs": [
        {
          "internalType": "address",
          "name": "",
          "type": "address"
        }
      ],
      "stateMutability": "view",
      "type": "function"
    },
    {
      "inputs": [],
      "name": "decimals",
      "outputs": [
        {
          "internalType": "uint8",
          "name": "",
          "type": "uint8"
        }
      ],
      "stateMutability": "view",
      "type": "function"
    },
    {
      "inputs": [
        {
          "internalType": "address",
          "name": "spender",
          "type": "address"
        },
        {
          "internalType": "uint256",
          "name": "subtractedValue",
          "type": "uint256"
        }
      ],
      "name": "decreaseAllowance",
      "outputs": [
        {
          "internalType": "bool",
          "name": "",
          "type": "bool"
        }
      ],
      "stateMutability": "nonpayable",
      "type": "function"
    },
    {
      "inputs": [
        {
          "internalType": "uint256",
          "name": "_amount",
          "type": "uint256"
        }
      ],
      "name": "deposit",
      "outputs": [],
      "stateMutability": "payable",
      "type": "function"
    },
    {
      "inputs": [],
      "name": "earn",
      "outputs": [],
      "stateMutability": "nonpayable",
      "type": "function"
    },
    {
      "inputs": [],
      "name": "getPricePerFullShare",
      "outputs": [
        {
          "internalType": "uint256",
          "name": "",
          "type": "uint256"
        }
      ],
      "stateMutability": "view",
      "type": "function"
    },
    {
      "inputs": [
        {
          "internalType": "address",
          "name": "spender",
          "type": "address"
        },
        {
          "internalType": "uint256",
          "name": "addedValue",
          "type": "uint256"
        }
      ],
      "name": "increaseAllowance",
      "outputs": [
        {
          "internalType": "bool",
          "name": "",
          "type": "bool"
        }
      ],
      "stateMutability": "nonpayable",
      "type": "function"
    },
    {
      "inputs": [],
      "name": "name",
      "outputs": [
        {
          "internalType": "string",
          "name": "",
          "type": "string"
        }
      ],
      "stateMutability": "view",
      "type": "function"
    },
    {
      "inputs": [],
      "name": "symbol",
      "outputs": [
        {
          "internalType": "string",
          "name": "",
          "type": "string"
        }
      ],
      "stateMutability": "view",
      "type": "function"
    },
    {
      "inputs": [],
      "name": "totalSupply",
      "outputs": [
        {
          "internalType": "uint256",
          "name": "",
          "type": "uint256"
        }
      ],
      "stateMutability": "view",
      "type": "function"
    },
    {
      "inputs": [
        {
          "internalType": "address",
          "name": "recipient",
          "type": "address"
        },
        {
          "internalType": "uint256",
          "name": "amount",
          "type": "uint256"
        }
      ],
      "name": "transfer",
      "outputs": [
        {
          "internalType": "bool",
          "name": "",
          "type": "bool"
        }
      ],
      "stateMutability": "nonpayable",
      "type": "function"
    },
    {
      "inputs": [
        {
          "internalType": "address",
          "name": "sender",
          "type": "address"
        },
        {
          "internalType": "address",
          "name": "recipient",
          "type": "address"
        },
        {
          "internalType": "uint256",
          "name": "amount",
          "type": "uint256"
        }
      ],
      "name": "transferFrom",
      "outputs": [
        {
          "internalType": "bool",
          "name": "",
          "type": "bool"
        }
      ],
      "stateMutability": "nonpayable",
      "type": "function"
    },
    {
      "inputs": [
        {
          "internalType": "uint256",
          "name": "_shares",
          "type": "uint256"
        }
      ],
      "name": "withdraw",
      "outputs": [],
      "stateMutability": "nonpayable",
      "type": "function"
    },
    {
      "stateMutability": "payable",
      "type": "receive"
    }
  ],
  "transactionHash": "0xee47aedc75590f22e22760230538060fae01a93751fd59a18298d54916e86733",
  "args": [
    "0xb0F3Cea41A5F577603874fF742cEd22F5d578351"
  ],
  "solcInputHash": "5485ed41de06bcd7662b0e6295ae15e1",
  "bytecode": "0x60806040523480156200001157600080fd5b50604051620022ea380380620022ea8339818101604052810190620000379190620001e6565b6040518060400160405280600981526020017f6b616d616f2045544800000000000000000000000000000000000000000000008152506040518060400160405280600481526020017f6b455448000000000000000000000000000000000000000000000000000000008152508160039080519060200190620000bb9291906200011f565b508060049080519060200190620000d49291906200011f565b50505080600560006101000a81548173ffffffffffffffffffffffffffffffffffffffff021916908373ffffffffffffffffffffffffffffffffffffffff16021790555050620002c5565b8280546200012d9062000246565b90600052602060002090601f0160209004810192826200015157600085556200019d565b82601f106200016c57805160ff19168380011785556200019d565b828001600101855582156200019d579182015b828111156200019c5782518255916020019190600101906200017f565b5b509050620001ac9190620001b0565b5090565b5b80821115620001cb576000816000905550600101620001b1565b5090565b600081519050620001e081620002ab565b92915050565b600060208284031215620001f957600080fd5b60006200020984828501620001cf565b91505092915050565b60006200021f8262000226565b9050919050565b600073ffffffffffffffffffffffffffffffffffffffff82169050919050565b600060028204905060018216806200025f57607f821691505b602082108114156200027657620002756200027c565b5b50919050565b7f4e487b7100000000000000000000000000000000000000000000000000000000600052602260045260246000fd5b620002b68162000212565b8114620002c257600080fd5b50565b61201580620002d56000396000f3fe6080604052600436106101025760003560e01c806377c7b8fc11610095578063b69ef8a811610064578063b69ef8a81461037c578063b6b55f25146103a7578063d389800f146103c3578063dd62ed3e146103da578063f77c47911461041757610109565b806377c7b8fc146102ac57806395d89b41146102d7578063a457c2d714610302578063a9059cbb1461033f57610109565b80632e1a7d4d116100d15780632e1a7d4d146101de578063313ce56714610207578063395093511461023257806370a082311461026f57610109565b806306fdde031461010e578063095ea7b31461013957806318160ddd1461017657806323b872dd146101a157610109565b3661010957005b600080fd5b34801561011a57600080fd5b50610123610442565b6040516101309190611841565b60405180910390f35b34801561014557600080fd5b50610160600480360381019061015b9190611568565b6104d4565b60405161016d9190611826565b60405180910390f35b34801561018257600080fd5b5061018b6104f2565b60405161019891906119c3565b60405180910390f35b3480156101ad57600080fd5b506101c860048036038101906101c39190611519565b6104fc565b6040516101d59190611826565b60405180910390f35b3480156101ea57600080fd5b50610205600480360381019061020091906115a4565b6105f4565b005b34801561021357600080fd5b5061021c6106e6565b60405161022991906119de565b60405180910390f35b34801561023e57600080fd5b5061025960048036038101906102549190611568565b6106ef565b6040516102669190611826565b60405180910390f35b34801561027b57600080fd5b50610296600480360381019061029191906114b4565b61079b565b6040516102a391906119c3565b60405180910390f35b3480156102b857600080fd5b506102c16107e3565b6040516102ce91906119c3565b60405180910390f35b3480156102e357600080fd5b506102ec610825565b6040516102f99190611841565b60405180910390f35b34801561030e57600080fd5b5061032960048036038101906103249190611568565b6108b7565b6040516103369190611826565b60405180910390f35b34801561034b57600080fd5b5061036660048036038101906103619190611568565b6109a2565b6040516103739190611826565b60405180910390f35b34801561038857600080fd5b506103916109c0565b60405161039e91906119c3565b60405180910390f35b6103c160048036038101906103bc91906115a4565b6109c8565b005b3480156103cf57600080fd5b506103d8610a2e565b005b3480156103e657600080fd5b5061040160048036038101906103fc91906114dd565b610af6565b60405161040e91906119c3565b60405180910390f35b34801561042357600080fd5b5061042c610b7d565b604051610439919061180b565b60405180910390f35b60606003805461045190611bc8565b80601f016020809104026020016040519081016040528092919081815260200182805461047d90611bc8565b80156104ca5780601f1061049f576101008083540402835291602001916104ca565b820191906000526020600020905b8154815290600101906020018083116104ad57829003601f168201915b5050505050905090565b60006104e86104e1610ba3565b8484610bab565b6001905092915050565b6000600254905090565b6000610509848484610d76565b6000600160008673ffffffffffffffffffffffffffffffffffffffff1673ffffffffffffffffffffffffffffffffffffffff1681526020019081526020016000206000610554610ba3565b73ffffffffffffffffffffffffffffffffffffffff1673ffffffffffffffffffffffffffffffffffffffff168152602001908152602001600020549050828110156105d4576040517f08c379a00000000000000000000000000000000000000000000000000000000081526004016105cb906118e3565b60405180910390fd5b6105e8856105e0610ba3565b858403610bab565b60019150509392505050565b60006105fe6109c0565b9050600061062e61060d6104f2565b6106208585610ff790919063ffffffff16565b61100d90919063ffffffff16565b905061063a3384611023565b806106436109c0565b10156106d757600560009054906101000a900473ffffffffffffffffffffffffffffffffffffffff1673ffffffffffffffffffffffffffffffffffffffff16632e1a7d4d826040518263ffffffff1660e01b81526004016106a491906119c3565b600060405180830381600087803b1580156106be57600080fd5b505af11580156106d2573d6000803e3d6000fd5b505050505b6106e133826111fa565b505050565b60006012905090565b60006107916106fc610ba3565b84846001600061070a610ba3565b73ffffffffffffffffffffffffffffffffffffffff1673ffffffffffffffffffffffffffffffffffffffff16815260200190815260200160002060008873ffffffffffffffffffffffffffffffffffffffff1673ffffffffffffffffffffffffffffffffffffffff1681526020019081526020016000205461078c9190611a2b565b610bab565b6001905092915050565b60008060008373ffffffffffffffffffffffffffffffffffffffff1673ffffffffffffffffffffffffffffffffffffffff168152602001908152602001600020549050919050565b60006108206107f06104f2565b610812670de0b6b3a76400006108046109c0565b610ff790919063ffffffff16565b61100d90919063ffffffff16565b905090565b60606004805461083490611bc8565b80601f016020809104026020016040519081016040528092919081815260200182805461086090611bc8565b80156108ad5780601f10610882576101008083540402835291602001916108ad565b820191906000526020600020905b81548152906001019060200180831161089057829003601f168201915b5050505050905090565b600080600160006108c6610ba3565b73ffffffffffffffffffffffffffffffffffffffff1673ffffffffffffffffffffffffffffffffffffffff16815260200190815260200160002060008573ffffffffffffffffffffffffffffffffffffffff1673ffffffffffffffffffffffffffffffffffffffff16815260200190815260200160002054905082811015610983576040517f08c379a000000000000000000000000000000000000000000000000000000000815260040161097a90611983565b60405180910390fd5b61099761098e610ba3565b85858403610bab565b600191505092915050565b60006109b66109af610ba3565b8484610d76565b6001905092915050565b600047905090565b60006109d26109c0565b90503491506000806109e26104f2565b14156109f057829050610a1f565b610a1c82610a0e6109ff6104f2565b86610ff790919063ffffffff16565b61100d90919063ffffffff16565b90505b610a293382611320565b505050565b6000610a386109c0565b9050610a66600560009054906101000a900473ffffffffffffffffffffffffffffffffffffffff16826111fa565b600560009054906101000a900473ffffffffffffffffffffffffffffffffffffffff1673ffffffffffffffffffffffffffffffffffffffff1663e65a0117826040518263ffffffff1660e01b8152600401610ac191906119c3565b600060405180830381600087803b158015610adb57600080fd5b505af1158015610aef573d6000803e3d6000fd5b5050505050565b6000600160008473ffffffffffffffffffffffffffffffffffffffff1673ffffffffffffffffffffffffffffffffffffffff16815260200190815260200160002060008373ffffffffffffffffffffffffffffffffffffffff1673ffffffffffffffffffffffffffffffffffffffff16815260200190815260200160002054905092915050565b600560009054906101000a900473ffffffffffffffffffffffffffffffffffffffff1681565b600033905090565b600073ffffffffffffffffffffffffffffffffffffffff168373ffffffffffffffffffffffffffffffffffffffff161415610c1b576040517f08c379a0000000000000000000000000000000000000000000000000000000008152600401610c1290611943565b60405180910390fd5b600073ffffffffffffffffffffffffffffffffffffffff168273ffffffffffffffffffffffffffffffffffffffff161415610c8b576040517f08c379a0000000000000000000000000000000000000000000000000000000008152600401610c82906118a3565b60405180910390fd5b80600160008573ffffffffffffffffffffffffffffffffffffffff1673ffffffffffffffffffffffffffffffffffffffff16815260200190815260200160002060008473ffffffffffffffffffffffffffffffffffffffff1673ffffffffffffffffffffffffffffffffffffffff168152602001908152602001600020819055508173ffffffffffffffffffffffffffffffffffffffff168373ffffffffffffffffffffffffffffffffffffffff167f8c5be1e5ebec7d5bd14f71427d1e84f3dd0314c0f7b2291e5b200ac8c7c3b92583604051610d6991906119c3565b60405180910390a3505050565b600073ffffffffffffffffffffffffffffffffffffffff168373ffffffffffffffffffffffffffffffffffffffff161415610de6576040517f08c379a0000000000000000000000000000000000000000000000000000000008152600401610ddd90611923565b60405180910390fd5b600073ffffffffffffffffffffffffffffffffffffffff168273ffffffffffffffffffffffffffffffffffffffff161415610e56576040517f08c379a0000000000000000000000000000000000000000000000000000000008152600401610e4d90611863565b60405180910390fd5b610e61838383611480565b60008060008573ffffffffffffffffffffffffffffffffffffffff1673ffffffffffffffffffffffffffffffffffffffff16815260200190815260200160002054905081811015610ee7576040517f08c379a0000000000000000000000000000000000000000000000000000000008152600401610ede906118c3565b60405180910390fd5b8181036000808673ffffffffffffffffffffffffffffffffffffffff1673ffffffffffffffffffffffffffffffffffffffff16815260200190815260200160002081905550816000808573ffffffffffffffffffffffffffffffffffffffff1673ffffffffffffffffffffffffffffffffffffffff1681526020019081526020016000206000828254610f7a9190611a2b565b925050819055508273ffffffffffffffffffffffffffffffffffffffff168473ffffffffffffffffffffffffffffffffffffffff167fddf252ad1be2c89b69c2b068fc378daa952ba7f163c4a11628f55a4df523b3ef84604051610fde91906119c3565b60405180910390a3610ff1848484611485565b50505050565b600081836110059190611ab2565b905092915050565b6000818361101b9190611a81565b905092915050565b600073ffffffffffffffffffffffffffffffffffffffff168273ffffffffffffffffffffffffffffffffffffffff161415611093576040517f08c379a000000000000000000000000000000000000000000000000000000000815260040161108a90611903565b60405180910390fd5b61109f82600083611480565b60008060008473ffffffffffffffffffffffffffffffffffffffff1673ffffffffffffffffffffffffffffffffffffffff16815260200190815260200160002054905081811015611125576040517f08c379a000000000000000000000000000000000000000000000000000000000815260040161111c90611883565b60405180910390fd5b8181036000808573ffffffffffffffffffffffffffffffffffffffff1673ffffffffffffffffffffffffffffffffffffffff16815260200190815260200160002081905550816002600082825461117c9190611b0c565b92505081905550600073ffffffffffffffffffffffffffffffffffffffff168373ffffffffffffffffffffffffffffffffffffffff167fddf252ad1be2c89b69c2b068fc378daa952ba7f163c4a11628f55a4df523b3ef846040516111e191906119c3565b60405180910390a36111f583600084611485565b505050565b60008273ffffffffffffffffffffffffffffffffffffffff1682600067ffffffffffffffff811115611255577f4e487b7100000000000000000000000000000000000000000000000000000000600052604160045260246000fd5b6040519080825280601f01601f1916602001820160405280156112875781602001600182028036833780820191505090505b5060405161129591906117f4565b60006040518083038185875af1925050503d80600081146112d2576040519150601f19603f3d011682016040523d82523d6000602084013e6112d7565b606091505b505090508061131b576040517f08c379a000000000000000000000000000000000000000000000000000000000815260040161131290611963565b60405180910390fd5b505050565b600073ffffffffffffffffffffffffffffffffffffffff168273ffffffffffffffffffffffffffffffffffffffff161415611390576040517f08c379a0000000000000000000000000000000000000000000000000000000008152600401611387906119a3565b60405180910390fd5b61139c60008383611480565b80600260008282546113ae9190611a2b565b92505081905550806000808473ffffffffffffffffffffffffffffffffffffffff1673ffffffffffffffffffffffffffffffffffffffff16815260200190815260200160002060008282546114039190611a2b565b925050819055508173ffffffffffffffffffffffffffffffffffffffff16600073ffffffffffffffffffffffffffffffffffffffff167fddf252ad1be2c89b69c2b068fc378daa952ba7f163c4a11628f55a4df523b3ef8360405161146891906119c3565b60405180910390a361147c60008383611485565b5050565b505050565b505050565b60008135905061149981611fb1565b92915050565b6000813590506114ae81611fc8565b92915050565b6000602082840312156114c657600080fd5b60006114d48482850161148a565b91505092915050565b600080604083850312156114f057600080fd5b60006114fe8582860161148a565b925050602061150f8582860161148a565b9150509250929050565b60008060006060848603121561152e57600080fd5b600061153c8682870161148a565b935050602061154d8682870161148a565b925050604061155e8682870161149f565b9150509250925092565b6000806040838503121561157b57600080fd5b60006115898582860161148a565b925050602061159a8582860161149f565b9150509250929050565b6000602082840312156115b657600080fd5b60006115c48482850161149f565b91505092915050565b6115d681611b40565b82525050565b6115e581611b52565b82525050565b60006115f6826119f9565b6116008185611a0f565b9350611610818560208601611b95565b80840191505092915050565b600061162782611a04565b6116318185611a1a565b9350611641818560208601611b95565b61164a81611c87565b840191505092915050565b6000611662602383611a1a565b915061166d82611c98565b604082019050919050565b6000611685602283611a1a565b915061169082611ce7565b604082019050919050565b60006116a8602283611a1a565b91506116b382611d36565b604082019050919050565b60006116cb602683611a1a565b91506116d682611d85565b604082019050919050565b60006116ee602883611a1a565b91506116f982611dd4565b604082019050919050565b6000611711602183611a1a565b915061171c82611e23565b604082019050919050565b6000611734602583611a1a565b915061173f82611e72565b604082019050919050565b6000611757602483611a1a565b915061176282611ec1565b604082019050919050565b600061177a601383611a1a565b915061178582611f10565b602082019050919050565b600061179d602583611a1a565b91506117a882611f39565b604082019050919050565b60006117c0601f83611a1a565b91506117cb82611f88565b602082019050919050565b6117df81611b7e565b82525050565b6117ee81611b88565b82525050565b600061180082846115eb565b915081905092915050565b600060208201905061182060008301846115cd565b92915050565b600060208201905061183b60008301846115dc565b92915050565b6000602082019050818103600083015261185b818461161c565b905092915050565b6000602082019050818103600083015261187c81611655565b9050919050565b6000602082019050818103600083015261189c81611678565b9050919050565b600060208201905081810360008301526118bc8161169b565b9050919050565b600060208201905081810360008301526118dc816116be565b9050919050565b600060208201905081810360008301526118fc816116e1565b9050919050565b6000602082019050818103600083015261191c81611704565b9050919050565b6000602082019050818103600083015261193c81611727565b9050919050565b6000602082019050818103600083015261195c8161174a565b9050919050565b6000602082019050818103600083015261197c8161176d565b9050919050565b6000602082019050818103600083015261199c81611790565b9050919050565b600060208201905081810360008301526119bc816117b3565b9050919050565b60006020820190506119d860008301846117d6565b92915050565b60006020820190506119f360008301846117e5565b92915050565b600081519050919050565b600081519050919050565b600081905092915050565b600082825260208201905092915050565b6000611a3682611b7e565b9150611a4183611b7e565b9250827fffffffffffffffffffffffffffffffffffffffffffffffffffffffffffffffff03821115611a7657611a75611bfa565b5b828201905092915050565b6000611a8c82611b7e565b9150611a9783611b7e565b925082611aa757611aa6611c29565b5b828204905092915050565b6000611abd82611b7e565b9150611ac883611b7e565b9250817fffffffffffffffffffffffffffffffffffffffffffffffffffffffffffffffff0483118215151615611b0157611b00611bfa565b5b828202905092915050565b6000611b1782611b7e565b9150611b2283611b7e565b925082821015611b3557611b34611bfa565b5b828203905092915050565b6000611b4b82611b5e565b9050919050565b60008115159050919050565b600073ffffffffffffffffffffffffffffffffffffffff82169050919050565b6000819050919050565b600060ff82169050919050565b60005b83811015611bb3578082015181840152602081019050611b98565b83811115611bc2576000848401525b50505050565b60006002820490506001821680611be057607f821691505b60208210811415611bf457611bf3611c58565b5b50919050565b7f4e487b7100000000000000000000000000000000000000000000000000000000600052601160045260246000fd5b7f4e487b7100000000000000000000000000000000000000000000000000000000600052601260045260246000fd5b7f4e487b7100000000000000000000000000000000000000000000000000000000600052602260045260246000fd5b6000601f19601f8301169050919050565b7f45524332303a207472616e7366657220746f20746865207a65726f206164647260008201527f6573730000000000000000000000000000000000000000000000000000000000602082015250565b7f45524332303a206275726e20616d6f756e7420657863656564732062616c616e60008201527f6365000000000000000000000000000000000000000000000000000000000000602082015250565b7f45524332303a20617070726f766520746f20746865207a65726f20616464726560008201527f7373000000000000000000000000000000000000000000000000000000000000602082015250565b7f45524332303a207472616e7366657220616d6f756e742065786365656473206260008201527f616c616e63650000000000000000000000000000000000000000000000000000602082015250565b7f45524332303a207472616e7366657220616d6f756e742065786365656473206160008201527f6c6c6f77616e6365000000000000000000000000000000000000000000000000602082015250565b7f45524332303a206275726e2066726f6d20746865207a65726f2061646472657360008201527f7300000000000000000000000000000000000000000000000000000000000000602082015250565b7f45524332303a207472616e736665722066726f6d20746865207a65726f20616460008201527f6472657373000000000000000000000000000000000000000000000000000000602082015250565b7f45524332303a20617070726f76652066726f6d20746865207a65726f2061646460008201527f7265737300000000000000000000000000000000000000000000000000000000602082015250565b7f4554485f5452414e534645525f4641494c454400000000000000000000000000600082015250565b7f45524332303a2064656372656173656420616c6c6f77616e63652062656c6f7760008201527f207a65726f000000000000000000000000000000000000000000000000000000602082015250565b7f45524332303a206d696e7420746f20746865207a65726f206164647265737300600082015250565b611fba81611b40565b8114611fc557600080fd5b50565b611fd181611b7e565b8114611fdc57600080fd5b5056fea26469706673582212203f60b1ce0893822d0ab6271507974138b1d7a56a14baa0ce9dba6a1bc469d35a64736f6c63430008040033",
  "devdoc": {
    "kind": "dev",
    "methods": {
      "allowance(address,address)": {
        "details": "See {IERC20-allowance}."
      },
      "approve(address,uint256)": {
        "details": "See {IERC20-approve}. Requirements: - `spender` cannot be the zero address."
      },
      "balanceOf(address)": {
        "details": "See {IERC20-balanceOf}."
      },
      "decimals()": {
        "details": "Returns the number of decimals used to get its user representation. For example, if `decimals` equals `2`, a balance of `505` tokens should be displayed to a user as `5.05` (`505 / 10 ** 2`). Tokens usually opt for a value of 18, imitating the relationship between Ether and Wei. This is the value {ERC20} uses, unless this function is overridden; NOTE: This information is only used for _display_ purposes: it in no way affects any of the arithmetic of the contract, including {IERC20-balanceOf} and {IERC20-transfer}."
      },
      "decreaseAllowance(address,uint256)": {
        "details": "Atomically decreases the allowance granted to `spender` by the caller. This is an alternative to {approve} that can be used as a mitigation for problems described in {IERC20-approve}. Emits an {Approval} event indicating the updated allowance. Requirements: - `spender` cannot be the zero address. - `spender` must have allowance for the caller of at least `subtractedValue`."
      },
      "increaseAllowance(address,uint256)": {
        "details": "Atomically increases the allowance granted to `spender` by the caller. This is an alternative to {approve} that can be used as a mitigation for problems described in {IERC20-approve}. Emits an {Approval} event indicating the updated allowance. Requirements: - `spender` cannot be the zero address."
      },
      "name()": {
        "details": "Returns the name of the token."
      },
      "symbol()": {
        "details": "Returns the symbol of the token, usually a shorter version of the name."
      },
      "totalSupply()": {
        "details": "See {IERC20-totalSupply}."
      },
      "transfer(address,uint256)": {
        "details": "See {IERC20-transfer}. Requirements: - `recipient` cannot be the zero address. - the caller must have a balance of at least `amount`."
      },
      "transferFrom(address,address,uint256)": {
        "details": "See {IERC20-transferFrom}. Emits an {Approval} event indicating the updated allowance. This is not required by the EIP. See the note at the beginning of {ERC20}. Requirements: - `sender` and `recipient` cannot be the zero address. - `sender` must have a balance of at least `amount`. - the caller must have allowance for ``sender``'s tokens of at least `amount`."
      }
    },
    "version": 1
  },
  "userdoc": {
    "kind": "user",
    "methods": {},
    "version": 1
  },
  "storageLayout": {
    "storage": [
      {
        "astId": 119,
        "contract": "contracts/protocol/Vault.sol:Vault",
        "label": "_balances",
        "offset": 0,
        "slot": "0",
        "type": "t_mapping(t_address,t_uint256)"
      },
      {
        "astId": 125,
        "contract": "contracts/protocol/Vault.sol:Vault",
        "label": "_allowances",
        "offset": 0,
        "slot": "1",
        "type": "t_mapping(t_address,t_mapping(t_address,t_uint256))"
      },
      {
        "astId": 127,
        "contract": "contracts/protocol/Vault.sol:Vault",
        "label": "_totalSupply",
        "offset": 0,
        "slot": "2",
        "type": "t_uint256"
      },
      {
        "astId": 129,
        "contract": "contracts/protocol/Vault.sol:Vault",
        "label": "_name",
        "offset": 0,
        "slot": "3",
        "type": "t_string_storage"
      },
      {
        "astId": 131,
        "contract": "contracts/protocol/Vault.sol:Vault",
        "label": "_symbol",
        "offset": 0,
        "slot": "4",
        "type": "t_string_storage"
      },
      {
        "astId": 1648,
        "contract": "contracts/protocol/Vault.sol:Vault",
        "label": "controller",
        "offset": 0,
        "slot": "5",
        "type": "t_address"
      }
    ],
    "types": {
      "t_address": {
        "encoding": "inplace",
        "label": "address",
        "numberOfBytes": "20"
      },
      "t_mapping(t_address,t_mapping(t_address,t_uint256))": {
        "encoding": "mapping",
        "key": "t_address",
        "label": "mapping(address => mapping(address => uint256))",
        "numberOfBytes": "32",
        "value": "t_mapping(t_address,t_uint256)"
      },
      "t_mapping(t_address,t_uint256)": {
        "encoding": "mapping",
        "key": "t_address",
        "label": "mapping(address => uint256)",
        "numberOfBytes": "32",
        "value": "t_uint256"
      },
      "t_string_storage": {
        "encoding": "bytes",
        "label": "string",
        "numberOfBytes": "32"
      },
      "t_uint256": {
        "encoding": "inplace",
        "label": "uint256",
        "numberOfBytes": "32"
      }
    }
  }
}